{
  "contractName": "CarRent",
  "abi": [
    {
      "constant": true,
      "inputs": [],
      "name": "disputed",
      "outputs": [
        {
          "name": "",
          "type": "bool"
        }
      ],
      "payable": false,
      "stateMutability": "view",
      "type": "function"
    },
    {
      "constant": true,
      "inputs": [],
      "name": "renter",
      "outputs": [
        {
          "name": "",
          "type": "address"
        }
      ],
      "payable": false,
      "stateMutability": "view",
      "type": "function"
    },
    {
      "constant": true,
      "inputs": [],
      "name": "judge",
      "outputs": [
        {
          "name": "",
          "type": "address"
        }
      ],
      "payable": false,
      "stateMutability": "view",
      "type": "function"
    },
    {
      "constant": false,
      "inputs": [
        {
          "name": "add",
          "type": "address"
        },
        {
          "name": "t",
          "type": "uint8"
        }
      ],
      "name": "whitelistAddress",
      "outputs": [],
      "payable": false,
      "stateMutability": "nonpayable",
      "type": "function"
    },
    {
      "constant": true,
      "inputs": [],
      "name": "taxAgency",
      "outputs": [
        {
          "name": "",
          "type": "address"
        }
      ],
      "payable": false,
      "stateMutability": "view",
      "type": "function"
    },
    {
      "constant": true,
      "inputs": [],
      "name": "rent",
      "outputs": [
        {
          "name": "",
          "type": "uint256"
        }
      ],
      "payable": false,
      "stateMutability": "view",
      "type": "function"
    },
    {
      "constant": true,
      "inputs": [],
      "name": "vatInPermill",
      "outputs": [
        {
          "name": "",
          "type": "uint256"
        }
      ],
      "payable": false,
      "stateMutability": "view",
      "type": "function"
    },
    {
      "constant": true,
      "inputs": [],
      "name": "owner",
      "outputs": [
        {
          "name": "",
          "type": "address"
        }
      ],
      "payable": false,
      "stateMutability": "view",
      "type": "function"
    },
    {
      "constant": true,
      "inputs": [],
      "name": "state",
      "outputs": [
        {
          "name": "",
          "type": "uint8"
        }
      ],
      "payable": false,
      "stateMutability": "view",
      "type": "function"
    },
    {
      "constant": true,
      "inputs": [],
      "name": "funds",
      "outputs": [
        {
          "name": "",
          "type": "uint256"
        }
      ],
      "payable": false,
      "stateMutability": "view",
      "type": "function"
    },
    {
      "constant": true,
      "inputs": [],
      "name": "deposit",
      "outputs": [
        {
          "name": "",
          "type": "uint256"
        }
      ],
      "payable": false,
      "stateMutability": "view",
      "type": "function"
    },
    {
      "constant": false,
      "inputs": [
        {
          "name": "add",
          "type": "address"
        }
      ],
      "name": "blacklistAddress",
      "outputs": [],
      "payable": false,
      "stateMutability": "nonpayable",
      "type": "function"
    },
    {
      "inputs": [],
      "payable": false,
      "stateMutability": "nonpayable",
      "type": "constructor"
    },
    {
      "constant": true,
      "inputs": [],
      "name": "canAcceptCar",
      "outputs": [
        {
          "name": "",
          "type": "bool"
        }
      ],
      "payable": false,
      "stateMutability": "view",
      "type": "function"
    },
    {
      "constant": false,
      "inputs": [],
      "name": "acceptCar",
      "outputs": [],
      "payable": true,
      "stateMutability": "payable",
      "type": "function"
    },
    {
      "constant": true,
      "inputs": [],
      "name": "canReturnCar",
      "outputs": [
        {
          "name": "",
          "type": "bool"
        }
      ],
      "payable": false,
      "stateMutability": "view",
      "type": "function"
    },
    {
      "constant": false,
      "inputs": [],
      "name": "returnCar",
      "outputs": [],
      "payable": false,
      "stateMutability": "nonpayable",
      "type": "function"
    },
    {
      "constant": true,
      "inputs": [],
      "name": "canReturnDeposit",
      "outputs": [
        {
          "name": "",
          "type": "bool"
        }
      ],
      "payable": false,
      "stateMutability": "view",
      "type": "function"
    },
    {
      "constant": false,
      "inputs": [
        {
          "name": "amount",
          "type": "uint256"
        }
      ],
      "name": "returnDeposit",
      "outputs": [],
      "payable": false,
      "stateMutability": "nonpayable",
      "type": "function"
    },
    {
      "constant": true,
      "inputs": [],
      "name": "canDisputeDeposit",
      "outputs": [
        {
          "name": "",
          "type": "bool"
        }
      ],
      "payable": false,
      "stateMutability": "view",
      "type": "function"
    },
    {
      "constant": false,
      "inputs": [],
      "name": "disputeDeposit",
      "outputs": [],
      "payable": false,
      "stateMutability": "nonpayable",
      "type": "function"
    },
    {
      "constant": true,
      "inputs": [],
      "name": "canAcceptDeposit",
      "outputs": [
        {
          "name": "",
          "type": "bool"
        }
      ],
      "payable": false,
      "stateMutability": "view",
      "type": "function"
    },
    {
      "constant": false,
      "inputs": [],
      "name": "acceptDeposit",
      "outputs": [],
      "payable": false,
      "stateMutability": "nonpayable",
      "type": "function"
    },
    {
      "constant": true,
      "inputs": [],
      "name": "canJudgeDeposit",
      "outputs": [
        {
          "name": "",
          "type": "bool"
        }
      ],
      "payable": false,
      "stateMutability": "view",
      "type": "function"
    },
    {
      "constant": false,
      "inputs": [
        {
          "name": "ownerAmount",
          "type": "uint256"
        }
      ],
      "name": "judgeDeposit",
      "outputs": [],
      "payable": false,
      "stateMutability": "nonpayable",
      "type": "function"
    }
  ],
  "bytecode": "0x6080604052604d60005573bc269a349a26ba0854c824d49d44af01e72ddde0600160006101000a81548173ffffffffffffffffffffffffffffffffffffffff021916908373ffffffffffffffffffffffffffffffffffffffff16021790555073c61762175a7637b7623d999e7bbb1f74cf43dc0c600560006101000a81548173ffffffffffffffffffffffffffffffffffffffff021916908373ffffffffffffffffffffffffffffffffffffffff160217905550601460065560646007556000600960006101000a81548160ff0219169083151502179055506000600960016101000a81548160ff021916908360ff16021790555034801561010057600080fd5b5033600360006101000a81548173ffffffffffffffffffffffffffffffffffffffff021916908373ffffffffffffffffffffffffffffffffffffffff160217905550610f9b806101516000396000f30060806040526004361061013e576000357c0100000000000000000000000000000000000000000000000000000000900463ffffffff1680630695c46c146101435780630d0e02c814610172578063109846891461019f57806312ebc0f5146101ce57806318b683fb146101d85780631ba77af7146102055780631bb050001461023457806329e03ff1146102635780632e88ab0b1461027a57806335521a16146102d1578063573255f4146103005780636b9a5c6c146103575780636f267465146103a757806382996d9f146103fe57806388e9b019146104295780638c1b58eb146104585780638da5cb5b14610483578063a41a639f146104da578063c19d93fb146104f1578063c89f2ce414610522578063d0e30db01461054d578063d4a3803f14610578578063f3290d751461058f578063f9faf2a1146105d2575b600080fd5b34801561014f57600080fd5b50610158610601565b604051808215151515815260200191505060405180910390f35b34801561017e57600080fd5b5061019d60048036038101908080359060200190929190505050610614565b005b3480156101ab57600080fd5b506101b4610741565b604051808215151515815260200191505060405180910390f35b6101d661075d565b005b3480156101e457600080fd5b5061020360048036038101908080359060200190929190505050610892565b005b34801561021157600080fd5b5061021a61097a565b604051808215151515815260200191505060405180910390f35b34801561024057600080fd5b50610249610997565b604051808215151515815260200191505060405180910390f35b34801561026f57600080fd5b506102786109b4565b005b34801561028657600080fd5b5061028f610a76565b604051808273ffffffffffffffffffffffffffffffffffffffff1673ffffffffffffffffffffffffffffffffffffffff16815260200191505060405180910390f35b3480156102dd57600080fd5b506102e6610a9c565b604051808215151515815260200191505060405180910390f35b34801561030c57600080fd5b50610315610ad7565b604051808273ffffffffffffffffffffffffffffffffffffffff1673ffffffffffffffffffffffffffffffffffffffff16815260200191505060405180910390f35b34801561036357600080fd5b506103a5600480360381019080803573ffffffffffffffffffffffffffffffffffffffff169060200190929190803560ff169060200190929190505050610afd565b005b3480156103b357600080fd5b506103bc610b59565b604051808273ffffffffffffffffffffffffffffffffffffffff1673ffffffffffffffffffffffffffffffffffffffff16815260200191505060405180910390f35b34801561040a57600080fd5b50610413610b7f565b6040518082815260200191505060405180910390f35b34801561043557600080fd5b5061043e610b85565b604051808215151515815260200191505060405180910390f35b34801561046457600080fd5b5061046d610ba2565b6040518082815260200191505060405180910390f35b34801561048f57600080fd5b50610498610ba8565b604051808273ffffffffffffffffffffffffffffffffffffffff1673ffffffffffffffffffffffffffffffffffffffff16815260200191505060405180910390f35b3480156104e657600080fd5b506104ef610bce565b005b3480156104fd57600080fd5b50610506610c80565b604051808260ff1660ff16815260200191505060405180910390f35b34801561052e57600080fd5b50610537610c93565b6040518082815260200191505060405180910390f35b34801561055957600080fd5b50610562610c99565b6040518082815260200191505060405180910390f35b34801561058457600080fd5b5061058d610c9f565b005b34801561059b57600080fd5b506105d0600480360381019080803573ffffffffffffffffffffffffffffffffffffffff169060200190929190505050610d70565b005b3480156105de57600080fd5b506105e7610dcc565b604051808215151515815260200191505060405180910390f35b600960009054906101000a900460ff1681565b3373ffffffffffffffffffffffffffffffffffffffff16600560009054906101000a900473ffffffffffffffffffffffffffffffffffffffff1673ffffffffffffffffffffffffffffffffffffffff1614151561067057600080fd5b600960009054906101000a900460ff1615151561068c57600080fd5b600060075411151561069d57600080fd5b60075481111515156106ae57600080fd5b6001600960006101000a81548160ff0219169083151502179055506106f5600360009054906101000a900473ffffffffffffffffffffffffffffffffffffffff1682610de9565b610725600460009054906101000a900473ffffffffffffffffffffffffffffffffffffffff168260075403610de9565b6000600781905550600a600960019054906101000a9050505050565b600080600960019054906101000a900460ff1660ff1614905090565b6000600260003373ffffffffffffffffffffffffffffffffffffffff1673ffffffffffffffffffffffffffffffffffffffff16815260200190815260200160002060009054906101000a900460ff1660ff16111561089057600073ffffffffffffffffffffffffffffffffffffffff16600460009054906101000a900473ffffffffffffffffffffffffffffffffffffffff1673ffffffffffffffffffffffffffffffffffffffff1614151561081257600080fd5b60065460075401341015151561082757600080fd5b33600460006101000a81548173ffffffffffffffffffffffffffffffffffffffff021916908373ffffffffffffffffffffffffffffffffffffffff16021790555060075434036008819055506001600960016101000a81548160ff021916908360ff1602179055505b565b60008160075403101515156108a657600080fd5b3373ffffffffffffffffffffffffffffffffffffffff16600360009054906101000a900473ffffffffffffffffffffffffffffffffffffffff1673ffffffffffffffffffffffffffffffffffffffff1614151561090257600080fd5b8060076000828254039250508190555061093e600460009054906101000a900473ffffffffffffffffffffffffffffffffffffffff1682610de9565b6003600960016101000a81548160ff021916908360ff1602179055506000600754141561097757600a600960019054906101000a905050505b50565b60006001600960019054906101000a900460ff1660ff1614905090565b60006002600960019054906101000a900460ff1660ff1614905090565b3373ffffffffffffffffffffffffffffffffffffffff16600460009054906101000a900473ffffffffffffffffffffffffffffffffffffffff1673ffffffffffffffffffffffffffffffffffffffff16141515610a1057600080fd5b600960009054906101000a900460ff16151515610a2c57600080fd5b6000600754111515610a3d57600080fd5b6001600960006101000a81548160ff0219169083151502179055506004600960016101000a81548160ff021916908360ff160217905550565b600460009054906101000a900473ffffffffffffffffffffffffffffffffffffffff1681565b60006003600960019054906101000a900460ff1660ff16148015610ad257506004600960019054906101000a900460ff1660ff16145b905090565b600560009054906101000a900473ffffffffffffffffffffffffffffffffffffffff1681565b80600260008473ffffffffffffffffffffffffffffffffffffffff1673ffffffffffffffffffffffffffffffffffffffff16815260200190815260200160002060006101000a81548160ff021916908360ff1602179055505050565b600160009054906101000a900473ffffffffffffffffffffffffffffffffffffffff1681565b60065481565b60006003600960019054906101000a900460ff1660ff1614905090565b60005481565b600360009054906101000a900473ffffffffffffffffffffffffffffffffffffffff1681565b60003373ffffffffffffffffffffffffffffffffffffffff16600460009054906101000a900473ffffffffffffffffffffffffffffffffffffffff1673ffffffffffffffffffffffffffffffffffffffff16141515610c2c57600080fd5b600654600854039050610c61600360009054906101000a900473ffffffffffffffffffffffffffffffffffffffff1682610e34565b6002600960016101000a81548160ff021916908360ff16021790555050565b600960019054906101000a900460ff1681565b60085481565b60075481565b3373ffffffffffffffffffffffffffffffffffffffff16600460009054906101000a900473ffffffffffffffffffffffffffffffffffffffff1673ffffffffffffffffffffffffffffffffffffffff16141515610cfb57600080fd5b6000600754111515610d0c57600080fd5b6000600960006101000a81548160ff021916908315150217905550610d55600360009054906101000a900473ffffffffffffffffffffffffffffffffffffffff16600754610de9565b6000600781905550600a600960019054906101000a90505050565b6000600260008373ffffffffffffffffffffffffffffffffffffffff1673ffffffffffffffffffffffffffffffffffffffff16815260200190815260200160002060006101000a81548160ff021916908360ff16021790555050565b60006004600960019054906101000a900460ff1660ff1614905090565b8173ffffffffffffffffffffffffffffffffffffffff166108fc829081150290604051600060405180830381858888f19350505050158015610e2f573d6000803e3d6000fd5b505050565b600080600260003373ffffffffffffffffffffffffffffffffffffffff1673ffffffffffffffffffffffffffffffffffffffff16815260200190815260200160002060009054906101000a900460ff16915060018260ff16101515610f5e576103e86000548402811515610ea457fe5b049050600160009054906101000a900473ffffffffffffffffffffffffffffffffffffffff1673ffffffffffffffffffffffffffffffffffffffff166108fc829081150290604051600060405180830381858888f19350505050158015610f0f573d6000803e3d6000fd5b508373ffffffffffffffffffffffffffffffffffffffff166108fc8285039081150290604051600060405180830381858888f19350505050158015610f58573d6000803e3d6000fd5b50610f69565b610f688484610de9565b5b505050505600a165627a7a723058201373397a08065281c1a336cc5191dce0d20b3735b3df25a1b8b05284fb0ac9c30029",
  "source": "pragma solidity ^0.4.24;\n\ncontract Vat  {\n  uint256 public vatInPermill=77;\n  address public taxAgency = 0xBC269A349a26BA0854c824D49d44Af01E72dDDe0;\n\n  mapping (address => uint8) whitelist;\n\n  modifier whitelisted() {\n    if (whitelist[msg.sender]>0) _;\n  }\n\n  function whitelistAddress(address add, uint8 t) public {\n      whitelist[add] = t; \n  }\n\n  function blacklistAddress(address add) public {\n      whitelist[add] = 0; \n  }\n\n  function vatTransfer(address destination, uint256 amount) internal {\n    uint8 t = whitelist[msg.sender];\n    if(t>=1)\n    {\n        uint256 vat = amount*vatInPermill/1000;\n        taxAgency.transfer(vat);\n        destination.transfer(amount-vat);\n    }\n    else{\n        transfer(destination,amount);\n    }\n  }\n\n  function transfer(address destination,uint256 amount) internal {\n      destination.transfer(amount);\n  }\n\n}\n\n\ncontract CarRent is Vat {\n  address public owner;\n  address public renter;\n  address public judge = 0xc61762175a7637B7623d999e7BBB1f74cF43dC0C;\n  uint256 public rent = 20;\n  uint256 public deposit = 100;\n  uint256 public funds;\n  bool public disputed =false;\n  uint8 public state = 0;\n\n  constructor() public {\n    owner = msg.sender;\n\n  }\n\n  \n  function canAcceptCar() public view returns(bool) {\n    return state==0;\n  }\n\n  \n  function acceptCar() public whitelisted payable {\n    require(renter == address(0));\n    require(msg.value>=deposit+rent);\n    renter = msg.sender;\n    funds = msg.value - deposit;\n    state = 1;\n  }\n\n  function canReturnCar() public view returns(bool) {\n    return state==1;\n  }\n\n  function returnCar() public {\n    require(renter==msg.sender);\n    uint256 rest = funds - rent;\n    vatTransfer(owner, rest);\n    state = 2;\n  }\n\n  function canReturnDeposit() public view returns(bool) {\n    return state==2;\n  }\n\n  function returnDeposit(uint256 amount) public {\n    require(deposit-amount>=0);\n    require(owner==msg.sender);\n    deposit -=  amount;\n    transfer(renter, amount);\n    state =3;\n    if(deposit ==0 ) state ==10;\n  }\n\n  function canDisputeDeposit() public view returns(bool) {\n    return state==3;\n  }\n\n  function disputeDeposit() public {\n    require(renter==msg.sender);\n    require(!disputed);\n    require(deposit>0);\n    disputed = true;\n    state =4;\n  }\n\n  function canAcceptDeposit() public view returns(bool) {\n    return state==3 && state == 4;\n  }\n\n  function acceptDeposit() public {\n    require(renter==msg.sender);\n    require(deposit>0);\n    disputed = false;\n    transfer(owner, deposit);\n    deposit = 0;\n    state ==10;\n  }\n\n  function canJudgeDeposit() public view returns(bool) {\n    return  state == 4;\n  }\n\n  function judgeDeposit(uint256 ownerAmount) public {\n    require(judge==msg.sender);\n    require(!disputed);\n    require(deposit>0);\n    require(ownerAmount<=deposit);\n    disputed = true;\n    transfer(owner, ownerAmount);\n    transfer(renter, deposit-ownerAmount);\n    deposit=0;\n    state ==10;\n  }\n\n}",
  "sourcePath": "/Users/hauri/crypto/rentOnB/easyRentOnB-/smartContract/contracts/CarRent.sol",
  "compiler": {
    "name": "solc",
    "version": "0.4.24+commit.e67f0147.Emscripten.clang"
  },
  "schemaVersion": "2.0.0",
  "updatedAt": "2018-09-18T09:52:35.048Z"
}