{
  "contractName": "Vat",
  "abi": [
    {
      "constant": true,
      "inputs": [],
      "name": "taxAgency",
      "outputs": [
        {
          "name": "",
          "type": "address"
        }
      ],
      "payable": false,
      "stateMutability": "view",
      "type": "function"
    },
    {
      "constant": true,
      "inputs": [],
      "name": "vatInPermill",
      "outputs": [
        {
          "name": "",
          "type": "uint256"
        }
      ],
      "payable": false,
      "stateMutability": "view",
      "type": "function"
    },
    {
      "constant": false,
      "inputs": [
        {
          "name": "add",
          "type": "address"
        },
        {
          "name": "t",
          "type": "uint8"
        }
      ],
      "name": "whitelistAddress",
      "outputs": [],
      "payable": false,
      "stateMutability": "nonpayable",
      "type": "function"
    },
    {
      "constant": false,
      "inputs": [
        {
          "name": "add",
          "type": "address"
        }
      ],
      "name": "blacklistAddress",
      "outputs": [],
      "payable": false,
      "stateMutability": "nonpayable",
      "type": "function"
    }
  ],
  "bytecode": "0x6080604052604d60005573a5383d0a5a0906528d71081ed871e1b1ea371f4e600160006101000a81548173ffffffffffffffffffffffffffffffffffffffff021916908373ffffffffffffffffffffffffffffffffffffffff16021790555034801561006a57600080fd5b5061028c8061007a6000396000f300608060405260043610610062576000357c0100000000000000000000000000000000000000000000000000000000900463ffffffff1680636b9a5c6c146100675780636f267465146100b75780638c1b58eb1461010e578063f3290d7514610139575b600080fd5b34801561007357600080fd5b506100b5600480360381019080803573ffffffffffffffffffffffffffffffffffffffff169060200190929190803560ff16906020019092919050505061017c565b005b3480156100c357600080fd5b506100cc6101d8565b604051808273ffffffffffffffffffffffffffffffffffffffff1673ffffffffffffffffffffffffffffffffffffffff16815260200191505060405180910390f35b34801561011a57600080fd5b506101236101fe565b6040518082815260200191505060405180910390f35b34801561014557600080fd5b5061017a600480360381019080803573ffffffffffffffffffffffffffffffffffffffff169060200190929190505050610204565b005b80600260008473ffffffffffffffffffffffffffffffffffffffff1673ffffffffffffffffffffffffffffffffffffffff16815260200190815260200160002060006101000a81548160ff021916908360ff1602179055505050565b600160009054906101000a900473ffffffffffffffffffffffffffffffffffffffff1681565b60005481565b6000600260008373ffffffffffffffffffffffffffffffffffffffff1673ffffffffffffffffffffffffffffffffffffffff16815260200190815260200160002060006101000a81548160ff021916908360ff160217905550505600a165627a7a72305820f2f2efc33833576eb109fdfbfb9f0c10f63c418e1aabeeff1d505e3c132e0f2b0029",
  "source": "pragma solidity ^0.4.24;\n\ncontract Vat  {\n  uint256 public vatInPermill=77;\n  address public taxAgency = 0xA5383D0A5a0906528D71081ED871e1B1Ea371f4e;\n\n  mapping (address => uint8) whitelist;\n\n  modifier whitelisted() {\n    if (whitelist[msg.sender]>0) _;\n  }\n\n  function whitelistAddress(address add, uint8 t) public {\n      whitelist[add] = t; \n  }\n\n  function blacklistAddress(address add) public {\n      whitelist[add] = 0; \n  }\n\n  function vatTransfer(address destination, uint256 amount) internal {\n    // uint8 t = whitelist[msg.sender];\n    // if(t>=1)\n    // {\n    uint256 vat = amount*vatInPermill/1000;\n    taxAgency.transfer(vat);\n    destination.transfer(amount-vat);\n    // }\n    // else{\n    //     transfer(destination,amount);\n    // }\n  }\n\n  function transfer(address destination,uint256 amount) internal {\n      destination.transfer(amount);\n  }\n\n}\n\n\ncontract CarRent is Vat {\n  address public owner;\n  address public renter;\n  address public judge = 0xE5e32bd821F1C7Be5C2B2bE466d4e762C803747B;\n  uint256 public rent = 1000000000000000000;\n  uint256 public deposit = 2000000000000000000;\n  uint256 public funds;\n  bool public disputed =false;\n  uint8 public state = 0;\n\n  constructor() public {\n    owner = msg.sender;\n\n  }\n\n  \n  function canAcceptCar() public view returns(bool) {\n    return state==0;\n  }\n\n  \n  function acceptCar() public payable {\n    require(renter == address(0));\n    require(msg.value>=deposit+rent);\n    renter = msg.sender;\n    funds = msg.value - deposit;\n    state = 1;\n  }\n\n  function canReturnCar() public view returns(bool) {\n    return state==1;\n  }\n\n  function returnCar() public {\n    require(renter==msg.sender);\n    uint256 rest = funds - rent;\n    vatTransfer(owner, rest);\n    state = 2;\n  }\n\n  function canReturnDeposit() public view returns(bool) {\n    return state==2;\n  }\n\n  function returnDeposit(uint256 amount) public {\n    require(deposit-amount>=0);\n    require(owner==msg.sender);\n    deposit -=  amount;\n    transfer(renter, amount);\n    state =3;\n    if(deposit ==0 ) state ==10;\n  }\n\n  function canDisputeDeposit() public view returns(bool) {\n    return state==3;\n  }\n\n  function disputeDeposit() public {\n    require(renter==msg.sender);\n    require(!disputed);\n    require(deposit>0);\n    disputed = true;\n    state =4;\n  }\n\n  function canAcceptDeposit() public view returns(bool) {\n    return state==3 && state == 4;\n  }\n\n  function acceptDeposit() public {\n    require(renter==msg.sender);\n    require(deposit>0);\n    disputed = false;\n    transfer(owner, deposit);\n    deposit = 0;\n    state ==10;\n  }\n\n  function canJudgeDeposit() public view returns(bool) {\n    return  state == 4;\n  }\n\n  function judgeDeposit(uint256 ownerAmount) public {\n    require(judge==msg.sender);\n    require(disputed);\n    require(deposit>0);\n    require(ownerAmount<=deposit);\n    disputed = true;\n    transfer(owner, ownerAmount);\n    transfer(renter, deposit-ownerAmount);\n    deposit=0;\n    state ==10;\n  }\n\n}",
  "sourcePath": "/Users/hauri/crypto/rentOnB/easyRentOnB-/smartContract/contracts/CarRent.sol",
  "compiler": {
    "name": "solc",
    "version": "0.4.24+commit.e67f0147.Emscripten.clang"
  },
  "schemaVersion": "2.0.0",
  "updatedAt": "2018-09-18T13:19:01.700Z"
}